:100000000C94D2010C9434020C9419020C94190231
:100010000C9419020C9419020C9419020C941902F4
:100020000C9419020C9419020C9419020C941902E4
:100030000C9419020C9419020C945E180C94190279
:100040000C9419020C9419020C9419020C941902C4
:100050000C9419020C9419020C9419020C941902B4
:100060000C9419020C9419022B0014001A000800B9
:10007000150017001D0018000C00120013002A00C4
:10008000290004001600070009000A000B000D00FB
:100090000E000F0033003400E1001C001B000600BE
:1000A0001900050011001000360037003800280044
:1000B000E000E600E200E30002512C002C000351B6
:1000C0005000510052004F00290014001A0008008F
:1000D000150017001C0018000C00120013002A0065
:1000E0002B0004001600070009000A000B000D0099
:1000F0000E000F0030003100E1001D001B00060063
:1001000019000500110010003600370038002800E3
:10011000E000E200E600E30002512C002C00035155
:100120005000510052004F0035001E001F002000FB
:1001300021002200230024002500260027002A0099
:100140004C003A003B003C003D003E003F002414C0
:100150002514261427142D14E1004000410042000C
:10016000430044004500010025022602010028004A
:100170000100010001000100010001000100010077
:10018000AB00AA00A900AE0035001E021F0220022B
:1001900021022202230224022502260227022A002B
:1001A0004C000100010001000100010001001414D5
:1001B00008142F002D023102E100640064020100E6
:1001C0000100010001006414330034000100280024
:1001D0000100010001000100010001000100010017
:1001E000AB00AA00A900AE00005C0B5D0C5D0D5DCC
:1001F0000E5D0F5D105D115D125D135D145D4C00B1
:1002000001000100295C1D5C1E5C135C0A5C095D39
:10021000010001000100085D01002B5C2A5C265CE6
:10022000275C2C5C2D5C0000000001000100010037
:1002300001000100010001000100010001000100B6
:10024000010001000100010009023B0002010080E1
:10025000320904000001030101000921010100012C
:100260002240000705810308000109040100010381
:100270000000000921010100012284000705830319
:1002800008000105010902A10185020901A100057B
:1002900009190129051500250175019505810275CA
:1002A00003950181030501093009311581257F7509
:1002B000089502810609381581257F3500450075AE
:1002C0000895018106050C0A38021581257F7508FD
:1002D00095018106C0C005010980A10185031501B2
:1002E00026B700190129B7751095018100C0050CCA
:1002F0000901A10185041501269C0219012A9C020D
:10030000751095018100C005010906A101750195CF
:1003100008050719E029E7150025018102950175F7
:1003200008810395057501050819012905910295B4
:10033000017503910395067508150026FF00050752
:10034000190029FF8100C01201100100000008C03F
:1003500016DB27020001020301240364006D00394B
:10036000007200650063006F007200640073002E6D
:100370000063006F006D003A00700031000C035004
:10038000006C00610069006400160364006D0039B0
:10039000007200650063006F007200640073000467
:1003A0000309040011241FBECFEFD8E0DEBFCDBF8C
:1003B00004B603FE27C08091BA029091BB02A091BF
:1003C000BC02B091BD028730904BA740B04BD1F436
:1003D0001092BA021092BB021092BC021092BD029F
:1003E00014BE84B7877F84BF0FB6F894A895809118
:1003F0006000886180936000109260000FBEE0E0B2
:10040000F8E3099511E0A0E0B1E0ECEEFDE302C0F5
:1004100005900D92AC33B107D9F722E0ACE3B1E01F
:1004200001C01D92AA3BB207E1F70E94C71A0C94C3
:10043000C91E0C940000A82FB92F80E090E041E085
:1004400050EA609530E009C02D91822797958795F5
:1004500010F084279527305EC8F36F5FA8F30895E6
:10046000EADF8D939D930895CF93CFB7CF93DF931A
:10047000C3954B9BE9F74B9B0BC04B9B09C04B9B18
:1004800007C04B9B05C04B9B03C04B9B01C08BC05F
:100490006F93C0919102DD27C856DD4F2F9365E51C
:1004A0004B9B03C02F916F91E6CF0F931F934F93F8
:1004B00020E040E15F9309B10C7003FB27F93F9303
:1004C00050E03BE039C01C7040642F77012F5F5F24
:1004D0001EC0406819B11C702F7752501FC0406475
:1004E00009B12F770C70D1F15F5F00C023C040626B
:1004F00019B12F771C7091F15F5F00C025C00C709F
:100500001027515012F45D5F0000115027952C3FC9
:1005100019B1C8F61C700127015027952C3FC8F669
:100520004227499309B10C7010274F73115027953A
:100530002C3FA8F64695469519B11C7079F0012715
:10054000015027952C3F98F66B5A60F3315009B152
:10055000B0F600C011E01CBB002719C03B5031951C
:10056000C31BD04011E01CBB0881033C09F10B34D4
:10057000F9F020918F021981110F1213EDCF4A81EA
:10058000441F093651F10D3211F0013E29F7009355
:1005900096023F915F914F911F910F912F916F9113
:1005A000CCB3C0FD65CFDF91CF91CFBFCF91189570
:1005B00020919602222369F3109194021123E9F508
:1005C0003430EAF13093940220939002109191021A
:1005D0003BE0311B3093910232C000919402013014
:1005E00064F50AE54F7049F43091170134FD28C0D5
:1005F00000931701C8E7D2E027C0433049F030919B
:10060000830234FD1DC000938302C4E8D2E01CC005
:100610003091AE0234FD14C00093AE02CFEAD2E0B6
:1006200013C0052710E000C000000BB91AC0052751
:1006300010E0221F1DC010E021C04AE502C032EDCB
:10064000432FC4E1D0E032E01AB11C605B9A0BB1D9
:100650001AB95CE020E865E320FF05270BB9279570
:1006600017951C3FF0F66695B8F7B1F720FF052700
:100670000BB9279517951C3FD0F62795179517FFAF
:10068000052700001C3F0BB9B0F629913A9519F7E0
:10069000037F10919502110FC651D0400BB911F094
:1006A00010938F0211E01CBB08601AB1137F402F1A
:1006B000437F54E05A95F1F70BB91AB94BB969CF9A
:1006C0000C9479080C947A080C942B040C94530520
:1006D0000E946C1760936C0270936D0280936E029F
:1006E00090936F02613009F4459A80916D028130D8
:1006F00009F4449A089510926C0210926D021092BF
:100700006E0210926F02ECE6F2E081E0808382E0FC
:10071000818360916C0270916D0280916E02909164
:100720006F020E94701760916C0270916D0280914F
:100730006E0290916F020C9470170F9304E023E007
:1007400042E00E94F5040F9108950F931F93CF93F9
:10075000DF93C82FD901633009F445C038F4623003
:10076000E9F0DF91CF911F910F910895643009F462
:100770005EC06530B1F7E82FE295EF70F0E0CF7022
:1007800081E090E001C0880FCA95EAF792A1483253
:10079000510509F45DC0809589235BC0E82FE2957F
:1007A000EF70F0E0B296CF7081E090E001C0880F6A
:1007B000CA95EAF7282F8095C8E1D1E0699179912F
:1007C0006417750741F412969C911297992341F092
:1007D0009081922B908391E0CC32D90779F7C1CFE9
:1007E00090819823F7CF12968C91882309F4B9CF82
:1007F0000E940E1E62E070E00E94941D8C01019721
:1008000009F0AFCF0E940E1EEC2FE295EF70F0E0E2
:10081000CF7001C0000FCA95EAF780FD05C082A124
:100820000095082302A39DCF82A1082BFBCFE82FC0
:10083000E295EF70F0E0CF7081E090E001C0880FAA
:10084000CA95EAF712962C9192A1222309F4A3CF1C
:10085000892B82A386CF0F931F93CF93DF93EC0155
:100860008B0160916C028EEF860F843028F4980122
:10087000AE0185E60E94A50360916D028EEF860FA2
:10088000843028F49801AE0184E60E94A503FE019D
:10089000E850FD45ED30F10508F057C0E553F14E45
:1008A0000C94A81DF8018281882321F081E00E9428
:1008B000E20480E0DF91CF911F910F910895F8013C
:1008C00082818823B9F380E0F2CFF8018281882306
:1008D00039F080916C02813071F410926C0245986D
:1008E00060916C0270916D0280916E0290916F0226
:1008F0000E947017DECF81E080936C02459AF0CFA2
:10090000F8018281882361F380916D02813021F4A6
:1009100010926D024498E4CF81E080936D02449A76
:10092000DFCF82E080936C02DBCF82E080936D02A8
:10093000D7CF83E0F7CF83E0F9CF84E0F3CF84E033
:10094000F5CF85E0EFCF85E0F1CF81E0B3CF81E057
:1009500008951F93CF93DF9300D000D00F92CDB7AF
:10096000DEB749835A836B832091620189819A8122
:1009700021111BC06623A9F00E94EF15182F682FC4
:1009800089819A810E949B1569817A81812F0F90BC
:100990000F900F900F900F90DF91CF911F910C94BB
:1009A000CC050E94C715182FEFCF0E94EF15698163
:1009B0007A81EDCFFC014081518162817381848114
:1009C0000C94A904CF93DF93C1E0D0E002C0CC0F18
:1009D000DD1F8A95E2F78C2F0E944617BE0190E03A
:1009E00080E0DF91CF910C949F148F929F92AF92F1
:1009F000BF92CF92DF92EF92FF920F931F936B0102
:100A00007C0181E090E0A0E0B0E04C015D0104C019
:100A1000880C991CAA1CBB1C4A95D2F7B501A401ED
:100A20004C015D0104C0880C991CAA1CBB1C2A95B2
:100A3000D2F7482959296A297B2904C0880F991FB0
:100A4000AA1FBB1F0A95D2F78A019B010C211D2109
:100A50002E213F21041715072607370789F48C2913
:100A60009D29AE29BF29BC01CD011F910F91FF9097
:100A7000EF90DF90CF90BF90AF909F908F900895B0
:100A800080959095A095B0958C219D21AE21BF2198
:100A9000EACF0E943317811102C00E94D4170C9430
:100AA00060030C946203089581E008950C9454054A
:100AB000CF93C82F0E9466038C2FCF910C945605BC
:100AC00008950E94DD100E9460052FEF84E39CE0F2
:100AD000215080409040E1F700C000000C94821843
:100AE0000F931F93CF93DF93EC010E94DA048C01E4
:100AF000BE010E946403882379F1BE01C8010E94EF
:100B0000250A882349F1BE01C8010E94660A88238C
:100B100019F18A81882341F001158CE51807D1F07D
:100B20000E3D8CE51807F1F006311C4551F50E9489
:100B300084169A819923D9F08A7A91E009F490E099
:100B400090933C01811111C089E20E945F160E94BE
:100B5000D01602C00E94610580E0DF91CF911F9105
:100B60000F9108950E94D417F7CF85E3EECF8091BF
:100B70003C01811104C089E20E946616E8CF85E33A
:100B8000FBCFCE01DF91CF911F910F910C94A70461
:100B900090E080E008950895972F70E02CE0929FF8
:100BA000600D711D1124FB0190E3899FE00DF11D83
:100BB0001124EE0FFF1FE859FF4F8591949108957E
:100BC000FC01EE0FFF1FE85BFD4F859194910895A6
:100BD000CF93DF930E94CC050E949F07EC01811503
:100BE00020E5920708F042C0811530E4930708F031
:100BF00014C1883E910528F5803E910508F0A0C0FB
:100C0000883A910588F4853A910508F08FC08130C3
:100C1000910509F495C0009709F492C0049708F073
:100C20008FC0D0E0C0E08CC08F3B910508F48CC031
:100C3000805C9109C03CD105A0F30E94E005EC0165
:100C40007FC08115904250F4C11581E0D80708F0AB
:100C500077C0C03FD10528F3D06572C0C11590E3BD
:100C6000D90708F0D0C0CE019F70E7CF811525E5E8
:100C7000920758F5811534E5930708F0FDC08115FA
:100C800042E5940750F4C11581E5D80708F4C8C0BF
:100C9000DC2FCC27C16FD06A53C0982F96959695BC
:100CA0009E0123703327C115D34508F0D6C0C1E09B
:100CB000D0E002C0CC0FDD1F2A95E2F720E2929F20
:100CC000C0011124C82BD92BC6C0C11589E5D8078E
:100CD000A8F4C11598E5D90708F0D3C0C11526E5D9
:100CE000D20708F09ECF8C2F0E943608C82FD0E084
:100CF000DC2FCC27CC27DF71D06222C0C1153AE5AA
:100D0000D30708F4C3C0CE0190568115904208F075
:100D100088CF8D2F8F710E94360890E0982F8827FA
:100D200088279F719C012C2BE901E6CF853A91051C
:100D300009F4BAC0863A910509F0B9C0C2E8D0E416
:100D4000CE01DF91CF910895883A910509F4B2C0A0
:100D5000893A910509F4B1C08A3A910509F4B0C005
:100D60008B3A910509F4AFC08C3A910509F4AEC0F5
:100D70008B3B910509F4ADC08C3B910509F4ACC0E7
:100D80008D3A910509F4ABC0803B910509F4AAC0E6
:100D90008E3A910509F4A9C08F3A910509F4A8C0CB
:100DA000813B910509F4A7C0823B910509F4A6C0D7
:100DB000833B910509F4A5C0843B910509F4A4C0C7
:100DC000853B910509F4A3C0863B910509F4A2C0B7
:100DD000873B910509F4A1C0883B910509F4A0C0A7
:100DE000893B910509F49FC08D3B910509F49EC094
:100DF0008E3B910509F49DC08A3B910509F49CC086
:100E0000C0E0D4E49DCFCE019927D3FF03C0EC010D
:100E1000D86C96CFEC01D06C93CFDF70D06A90CFB6
:100E2000CE01E4E096958795EA95E1F783702C2F43
:100E300026952695237090E2299F90011124382B46
:100E40008C2F8370C1E0D0E002C0CC0FDD1F8A95EB
:100E5000E2F7C22BD32BDC6873CFC1E0D0E002C035
:100E6000CC0FDD1F2A95E2F730E2939FC0011124D9
:100E7000C82BD92BDA6864CFD82FCC27C46FD06A9F
:100E80005FCFDC2FCC27C06FD06A5ACF8C2F8F70EA
:100E90000E94360834E0D695C7953A95E1F7CF70B1
:100EA0009C2FEC01D0694CCFC1E8D0E449CFC3E816
:100EB000D0E446CFC2EED4E443CFC9EED4E440CF71
:100EC000CAEED4E43DCFC5EBD4E43ACFC6EBD4E4CC
:100ED00037CFC3EBD4E434CFC4EBD4E431CFC7EB8A
:100EE000D4E42ECFCCECD4E42BCFCDECD4E428CF7B
:100EF000C3E8D5E425CFCAE8D5E422CFC2E9D5E4DA
:100F00001FCFC4E9D5E41CCFC1E2D6E419CFC3E2B8
:100F1000D6E416CFC4E2D6E413CFC5E2D6E410CFB0
:100F2000C6E2D6E40DCFC7E2D6E40ACFCFE6D4E4DA
:100F300007CFC0E7D4E404CFCAE2D6E401CF8238B9
:100F40009105B1F1B0F48133910509F475C048F40D
:100F50008932910509F469C08A32910509F473C098
:100F600008958533910509F459C08933910501F13C
:100F70000895833E9105A9F138F4803E9105F9F07A
:100F8000823E910549F10895863E9105A9F1873E7B
:100F90009105C9F1843E910519F52091770221FF51
:100FA0001FC08091760284FD14C087EE90E0089502
:100FB000209176022370A1F080EE90E008952091B8
:100FC000760220FD47C03091770230FF09C024FF30
:100FD00044C090E080E004C02091760222FDF7CF6B
:100FE00008952091760222FD3BC03091770230FDBA
:100FF000E3CF24FFF5CFEDCF2091760223FFF0CF92
:1010000024FDE7CFD2CF2091760223FD2CC0309172
:10101000770231FFEECF84EE90E0089520917602C2
:1010200025FFDECF89E290E008952091760225FF2A
:10103000D7CF85E390E008952091760226FFD0CFA8
:101040008AE290E008952091760226FFC9CF81E3DD
:1010500090E0089589E390E0089583EE90E008958C
:1010600082EE90E0089586EE90E0089590917602E9
:1010700092FF06C0282F28712830F9F4877F8460FA
:1010800093FF06C0282F28712831F1F4877E8461F0
:101090002091770220FF06C0382F38713830D9F4FC
:1010A000877F816021FF06C0282F28712831D1F465
:1010B000877E816194FD877E0895282F24712430D6
:1010C000F9F68B7F8860DCCF282F2471243101F75B
:1010D0008B7E8861DDCF382F3171313019F78E7FEB
:1010E0008860E0CF282F2171213121F78E7E886121
:1010F000E1CF08950895E82FF0E0EE0FFF1FE35CC5
:10110000FE4F8081918108950895CF93DF93A8E3E6
:10111000B1E04CE351E0C1E0D0E08D91E82FE295E1
:10112000EF70F0E061A18F709E0101C0220F8A95DF
:10113000EAF7922F9095962391A382A1822B82A306
:101140004A175B0751F7ACE2B1E048E351E0C1E078
:10115000D0E08D91E82FE295EF70F0E061A18F7003
:101160009E0101C0220F8A95EAF7922F909596234F
:1011700091A382A1822B82A34A175B0751F7109299
:1011800046011092450110923E0110923D011092CD
:101190004801109247011092400110923F011092B5
:1011A0004A0110924901109242011092410110929D
:1011B0004C0110924B01109244011092430184E0C3
:1011C0000E947E09DF91CF910C9449055F926F9246
:1011D0007F928F929F92AF92BF92CF92DF92EF92C7
:1011E000FF920F931F93CF93DF93A5E4B1E008E341
:1011F00011E0512CEE24E394F12C8D909C901197EA
:101200001D921D92E80189918E01E82FE295EF7001
:10121000F0E091A18F70B70101C0660F8A95EAF7DF
:10122000892F862B81A382A1662E6094862182A3BA
:10123000D0EADA95F1F78CE2C82E81E0D82E30E0C2
:1012400020E0AD0142505109E60179906E01872DF1
:1012500082958F7090E0EC0188A1EA01A880B980A6
:1012600090E0D72DDF7002C095958795DA95E2F76B
:1012700080FD41C0C701022E02C0880F991F0A9449
:10128000E2F78A299B29EA01998388832F5F3F4FE0
:101290002C303105C9F681A1D62DD823D1A382A146
:1012A000682B62A381E0FA0120813181281539057C
:1012B00009F480E0582AF1E0AD34BF0709F09DCF72
:1012C000252D44E06DE371E085E491E00E947F0903
:1012D0000E945105852DDF91CF911F910F91FF90B5
:1012E000EF90DF90CF90BF90AF909F908F907F90C6
:1012F0006F905F90089590E080E0C3CF0895FF92D3
:101300000F931F93CF93DF93F82E092F162FD72F0C
:10131000C42F222349F081E080934F010E942818B6
:1013200090934E0180934D0180914F018823A1F04D
:1013300080914D0190914E010E943418069760F003
:10134000EF2DF02FA12FBD2F90E080E0D0E08C1783
:101350009D0744F010924F01DF91CF911F910F91A3
:10136000FF900895219131912D933D930196EFCFF8
:101370000F931F93CF93DF93C62FD42F022FFC011F
:1013800082818823C9F0609352010E9428189093AB
:1013900051018093500180E28C0F883008F050C0DA
:1013A000C77081E001C0880FCA95EAF7DF91CF913D
:1013B0001F910F910C94430E10915201161335C0DA
:1013C00080915001909151010E943418883C910500
:1013D00060F5C0E2CD0F1D17B9F080E2810F8830B3
:1013E00040F4177081E001C0880F1A95EAF70E9457
:1013F0004A0EC83048F481E09D2F977001C0880FD5
:101400009A95EAF70E94430E802F0E94300EC83052
:10141000B8F4D77081E001C0880FDA95EAF7DF9160
:10142000CF911F910F910C944A0E80E28C0F88305F
:1014300038F4C77081E001C0880FCA95EAF7EFCF92
:10144000DF91CF911F910F9108959C01CB01233F14
:101450004CE5340731F190F4283DFCE53F07E9F015
:10146000293D4CE5340769F1273D3C4579F426E2F6
:1014700041EE61EE0E94B80980E00895253FFCE549
:101480003F07B9F090F0263F3C45B9F0FC0182815E
:101490008823D1F010925201089527E245EE65EEBF
:1014A000E9CF26E241EE60EEE5CF27E245EE64EEBD
:1014B000E1CF26E241EE62EEDDCF27E245EE66EEB9
:1014C000D9CF28E241E0EBCF81E00895CF93DF93BD
:1014D000EC01FB018281882309F419C1C230FCE5CB
:1014E000DF07C0F1C6319CE5D90730F09E012A5FC5
:1014F0003C452930310570F50E944B1790937702D7
:1015000080937602C031ECE5DE0709F4CFC008F025
:101510005BC0C8308CE5D80709F4B6C088F5C43084
:10152000ECE5DE0709F4A8C0C0F4C2308CE5D807AA
:1015300009F49CC0809176028260C330DC4509F4D6
:1015400098C080917602909177020E9459170E946C
:10155000DD1080E0DF91CF91089580917602806167
:10156000C630ECE5DE0709F484C08091760288601D
:10157000C730DC4508F47DC080917602806279C076
:10158000CC308CE5D80709F489C070F480917602DC
:101590008C60CA30ECE5DE0709F46BC008F478C053
:1015A000809176028E7F65C0CE308CE5D80709F435
:1015B00079C0809176028B7FCF30DC4508F459C02A
:1015C000809176028F7E55C0CB3FECE5DE0709F4B3
:1015D00057C030F5C3318CE5D80709F46FC078F4F3
:1015E000C131ECE5DE0709F465C0C231DC4509F024
:1015F000A8CF0E94DD10809176028F773AC0C53166
:101600008CE5D80709F462C008F476C080917702AF
:101610008160CA3FDC4509F094CF8093770291CF77
:10162000CF3FFCE5DF0709F44DC088F480917702D5
:101630008D7FCD3F9CE5D90781F3809177028E7F26
:10164000CE3FDC4550F3809177028360E6CFC13016
:10165000FDE5DF0709F459C008F444C080E0C2305A
:10166000DD4509F06ECF0E94D6176BCF80917602D0
:1016700081608093760265CF809176028460F9CF95
:10168000809177028260C9CF809176028064F1CF29
:101690000E94DD10809176028068EBCF8091760207
:1016A0008D7FE7CF80917602877FE3CF80917602AE
:1016B0008F7DDFCF809176028F7BDBCF80917602AA
:1016C000837FD7CF809177028C7FA7CF80917602DE
:1016D00082FB992790F921E0922790FB82F990FBF9
:1016E00083F9C7CF80917702982F909591708E7F64
:1016F000892B90FB81F991CF0E94DD1090917602A9
:10170000892F97FB87F98058B4CF81E0ACCF81E077
:1017100021CF90935801809357010895E09157018C
:10172000F0915801309721F00190F081E02D09945B
:1017300080E00895E0915701F0915801309721F031
:101740000280F381E02D09940895E0915701F09112
:101750005801309721F00480F581E02D0994089517
:1017600020915501309156012817390771F0909357
:10177000560180935501E0915701F091580130973F
:1017800021F00680F781E02D0994089520915301FE
:10179000309154012817390771F0909354018093C8
:1017A0005301E0915701F0915801309721F00084E6
:1017B000F185E02D09940895089508950C94DC0BAB
:1017C0000C9468030E94DD0B0C94DE0B81E00895FD
:1017D0000E941F180E9485080E9497180C94E00B25
:1017E0007F928F929F92AF92BF92CF92DF92EF92B1
:1017F000FF920F931F93CF93DF93CDB7DEB72A9756
:101800000FB6F894DEBF0FBECDBF0E94E6080E945F
:10181000E60B882309F471C04AE5A42E41E0B42EFA
:1018200010E000E0702E802F0E947B086C01F50113
:10183000819091905F018816990609F458C08091B3
:10184000CE0181FD0E94840880E0EE24E394F12C17
:101850008C249D2494012E213F21232B09F441C087
:101860008E837F82CE20DF2081E0CD2809F480E0C6
:1018700088870E9428188160782F9A8789874E81EF
:101880005F8168858A850E94A20C000F111FF801F4
:10189000E65AFE4F80819181E826F926F182E082A6
:1018A0000E94241A0E948E0B909159018917B1F160
:1018B0000E948E0B809359012A960FB6F894DEBFD2
:1018C0000FBECDBFDF91CF911F910F91FF90EF9091
:1018D000DF90CF90BF90AF909F908F907F900C94AF
:1018E00058058F5FEE0CFF1C8C3009F0B3CF0F5FF3
:1018F0001F4F0430110509F095CF8FEF89838A833C
:101900001B820E9428188160782F9D838C834981D7
:101910005A816B818D810E94A20CC2CF2A960FB68C
:10192000F894DEBF0FBECDBFDF91CF911F910F9115
:10193000FF90EF90DF90CF90BF90AF909F908F90EF
:101940007F900895CF93DF93CDB7DEB72B970FB677
:10195000F894DEBF0FBECDBF4F83588769877A8763
:101960008B871E821D8285E0FE013796DE0111966F
:1019700001900D928A95E1F749815A816B817C81B2
:101980008D819E812B960FB6F894DEBF0FBECDBF22
:10199000DF91CF910C947D13FC01808191810C9497
:1019A0003116882309F405C18238B9F40E948E0BE0
:1019B00081FDFFC089E30E945F160E94D0162FEFC1
:1019C00081EE94E0215080409040E1F700C000009B
:1019D00089E30E9466160C94D0168338A1F40E9405
:1019E0008E0B80FDE6C083E50E945F160E94D01634
:1019F0002FEF81EE94E0215080409040E1F700C04D
:101A0000000083E5E6CF8438A1F40E948E0B82FDAE
:101A1000D0C087E40E945F160E94D0162FEF81EE9F
:101A200094E0215080409040E1F700C0000087E43E
:101A3000D0CF9CEF980F913A18F40E945F16CBCF4D
:101A400090E2980F983050F4877091E001C0990FA0
:101A50008A95EAF7892F0E948716BDCF9BE5980FDC
:101A6000933070F4853A31F0863A39F083E890E0AB
:101A70000C94B00B81E890E0FBCF82E890E0F8CFC7
:101A800098E5980F973108F08EC0883A09F446C05F
:101A9000893A09F446C08A3A09F446C08B3A09F4F7
:101AA00046C08C3A09F446C08B3B09F446C08C3BD7
:101AB00009F446C08D3A09F446C0803B09F446C09B
:101AC0008E3A09F446C08F3A09F446C0813B09F4C6
:101AD00046C0823B09F446C0833B09F446C0843BC0
:101AE00009F446C0853B09F446C0863B09F446C06C
:101AF000873B09F446C0883B09F446C0893B09F49A
:101B000046C08D3B09F446C08E3B09F446C08A3B73
:101B100009F446C090E080E00C94C60B82EE90E0A1
:101B2000FBCF89EE90E0F8CF8AEE90E0F5CF85EB21
:101B300090E0F2CF86EB90E0EFCF83EB90E0ECCF3C
:101B400084EB90E0E9CF87EB90E0E6CF8CEC90E07F
:101B5000E3CF8DEC90E0E0CF83E891E0DDCF8AE841
:101B600091E0DACF82E991E0D7CF84E991E0D4CF58
:101B700081E292E0D1CF83E292E0CECF84E292E0A4
:101B8000CBCF85E292E0C8CF86E292E0C5CF87E274
:101B900092E0C2CF8FE690E0BFCF80E790E0BCCF6D
:101BA0008AE292E0B9CF803F20F00E9432190C9473
:101BB000191A0895882309F452C0823871F40E94DA
:101BC0008E0B81FF4CC089E30E945F160E94D016E5
:101BD00089E30E9466160C94D016833859F40E944B
:101BE0008E0B80FF3CC083E50E945F160E94D016DA
:101BF00083E5EFCF843859F40E948E0B82FF2FC00B
:101C000087E40E945F160E94D01687E4E2CF9CEF23
:101C1000980F913AF0F290E2980F983050F4877054
:101C200091E001C0990F8A95EAF7892F0E948D16DD
:101C3000D2CF9BE5980F933020F490E080E00C9495
:101C4000B00B98E5980F973120F490E080E00C9469
:101C5000C60B803F20F00E949A190C94191A08951F
:101C6000CF93C82F0E94D10CC93349F42FEF87EED0
:101C700093E0215080409040E1F700C000008C2F9D
:101C8000CF910C94DA0D882321F00E9487160C94D2
:101C9000D0160895882321F00E948D160C94D0163A
:101CA0000895BF92CF92DF92EF92FF920F931F930E
:101CB000CF93DF936C01D62FC72FFC0105810295CE
:101CC0000F70128111110E94A4160E947D16E82E39
:101CD000882371F01123B1F080E28D0F883090F0ED
:101CE00082E00E941B170E947D1691E0E82EE926F3
:101CF000BC2EB2949FE0B922EB2DF0E0E852F14EF9
:101D00000C94A81DE12CF4CF0C2F0F70C07F11F0A4
:101D10000295007F1123A9F0002359F080E28D0F76
:101D2000883010F0D11109C0802F0E9487160E94C0
:101D3000D0168D2F0E94D10C14C0802F0E949716B0
:101D4000F6CF8D2F0E94DA0D002359F080E28D0F1F
:101D5000883010F0D1112CC0802F0E948D160E9467
:101D6000D0162B2D2850330B2430310520F40E943F
:101D70008E0B0E945805EE2009F4D5C10E947916F9
:101D800080FDD1C1F60112820E9473160E94FF14D9
:101D9000C6010E949D100E947316DF91CF911F9182
:101DA0000F91FF90EF90DF90CF90BF900C94201593
:101DB000802F0E949D16D3CFFC2FFF70FF2EC07F77
:101DC000C03219F0F29480EFF822DD2369F0D130AF
:101DD00049F1112391F1002351F1F601858180FF32
:101DE000A8CF8F70858323C0112381F0011106C015
:101DF0000E94B7168F290E94430EB3CF0130C1F75E
:101E00000E94B7168F290E94BD16ABCF011106C0E4
:101E10000E94C6168F2D0E944A0EA3CF013009F4EE
:101E2000A0CFF6CF112329F0063008F09ACF8F2DDE
:101E3000E2CF053008F095CFEDCF002359F3D93329
:101E400049F4FFEF27EE33E0F15020403040E1F756
:101E500000C000008D2F0E94DA0D83CF8C2F869555
:101E60008695837069F0813009F07BCF8D2F9C2F90
:101E70009370111102C090E080E00E94C60B71CFF8
:101E80008D2F9C2F9370111102C090E080E00E9472
:101E9000B00B67CF112309F1D53F99F0D63FB9F0C8
:101EA000D43F49F4809170029091710281609093C7
:101EB0007102809370028D2F0E9432190E94191AAC
:101EC00050CF80917002909171028260F0CF80912A
:101ED0007002909171028460EACFD53F89F0D63FBD
:101EE000A9F0D43F49F480917002909171028E7FE5
:101EF00090937102809370028D2F0E949A19DECF09
:101F000080917002909171028D7FF2CF809170026A
:101F1000909171028B7FECCF8C2F837009F041C0C0
:101F200011111FCF4D2F429546954770440F440F16
:101F30000D2F0F7010E030E020E0042E04C0000FE1
:101F4000111F221F331F0A94D2F760E070E0CB010B
:101F5000D4FF0FC06FE070E080E090E004C0660F37
:101F6000771F881F991F4A95D2F7609570958095C5
:101F70009095C695C695C370602B712B822B932BC1
:101F8000C23049F058F4C13019F00E94B314E9CEC0
:101F90000E94A114E6CE0E94C514E3CE0E949F14B5
:101FA000E0CE8695112311F08C2F8170882309F4DF
:101FB000D8CE4D2F429546954770440F440F0D2FB4
:101FC0000F7010E030E020E0042E04C0000F111F5D
:101FD000221F331F0A94D2F760E070E0CB01D4FFD8
:101FE0000FC06FE070E080E090E004C0660F771FE4
:101FF000881F991F4A95D2F76095709580959095A6
:10200000C695C695C370602B712B822B932BC23063
:1020100049F058F4C13019F00E947615A2CE0E9402
:1020200064159FCE0E9488159CCE0E94D91499CE2B
:10203000CF70112329F08C2F0E94FF148D2FDBCE3F
:102040008D2F0E944A0E8C2F0E9420158ACED23FDF
:1020500089F160F4D03FC9F0D13F29F1112309F48F
:1020600042C0011166CE8C2F8F7121C0D33F39F150
:10207000D43FA1F7112369F1CF718C2F0E94FF1477
:1020800063E08C2F0E9406176CCE112341F00530BF
:1020900008F067CE8C2F8F710E94431562CE0630F8
:1020A00008F05FCEF7CF8C2F8F71112369F20E9459
:1020B000FF1457CE8C2F8F711123C9F3C5CF112375
:1020C00029F08C2F8F710E94EA144BCE0E94E514E8
:1020D00048CE81E00E941B17023008F442CE82E015
:1020E0000E941B173ECE002359F0D93309F0B2CE1F
:1020F0008FEF97EEE3E081509040E040E1F7A8CE0B
:102100008C2F8F71A1CF4C2F4F706D2FC6010E9465
:10211000C8050E94171425CE4C2F4F706D2FC60195
:102120000E94CB051ECEDF91CF911F910F91FF90A2
:10213000EF90DF90CF90BF9008950F931F93CF93B0
:10214000DF93EC018B819C81892B29F08881998117
:1021500089238F3F29F4DF91CF911F910F9108952B
:10216000CE010E9470058823B1F3688179818A814C
:102170000E943B168C010E949A150E949E14B80181
:10218000CE01DF91CF911F910F910C94510E0E94BF
:10219000A4160E94B4160E94D0160E94BB1A0E9478
:1021A000191A90E080E00E94B00B90E080E00C945F
:1021B000C60B0E946D160C94C7100E9494160C94C6
:1021C000D910E92FE295EF70E250EE3070F4F0E0B4
:1021D000E851F14E0C94A81D803F19F020F4883E80
:1021E00020F481E00895843FE1F380E00895883E83
:1021F000C0F3813FD1F7F5CF93FB882780F908958D
:102200000E9431160C94E110CF93DF9300D000D0E0
:102210000F92CDB7DEB70F900F900F900F900F90E9
:10222000DF91CF910895CF93DF9300D000D000D0FD
:10223000CDB7DEB726960FB6F894DEBF0FBECDBF82
:10224000DF91CF9108951F93CF93DF93C0916301E6
:1022500016E0809164018C1304C0DF91CF911F912F
:102260000895D0E01C9FF0011D9FF00D1124EB5943
:10227000FE4F4081518162817381848195810E94EA
:1022800013112196C770E5CF4091950150919601A9
:1022900060919701709198018091990190919A01B4
:1022A0000C9413111F93CF93DF9380919A01807F39
:1022B000C1F4809197018823A1F080916301C091BE
:1022C000640160919501709196014091980150913F
:1022D0009901D62FD723DA01A095B09516E0C8133F
:1022E00004C0DF91CF911F91089590E041155105F1
:1022F00011F0DF3F31F401968770F1CF2A0F3B1FB9
:1023000017C0189FF001199FF00D1124EB59FE4FD3
:1023100021812713F0CF20812613EDCF22812111B7
:10232000EACF238134812417350740F3241B350B72
:10233000283C310500F720919A012F7020612093ED
:102340009A0126E0289FF001299FF00D1124E659FB
:10235000FE4F80818F708061808385E991E00E94CB
:102360009D10DF91CF911F910C942311BF92CF92BA
:10237000DF92EF92FF920F931F93CF93DF93CDB72E
:10238000DEB761970FB6F894DEBF0FBECDBF8C01EC
:1023900085E0F801DE011D9601900D928A95E1F726
:1023A000D8014C9111965C9111971296EC9012976E
:1023B0008091980190919901009709F47FC1209133
:1023C000950130919601622F63236F3F09F476C126
:1023D0001396CD90DC90B0909701BB2009F411C109
:1023E000C816D906D0F1F601E81BF90BCF01FF247E
:1023F000F394883C910508F0F12C80919A01982F74
:10240000907FFF2009F4B8C091117FC0FE2C3513D6
:1024100029C0241327C0E11025C08F7080618093EC
:102420009A010E94441185E991E00E949D108091DB
:102430009A01D80115968C938F2D61960FB6F8945A
:10244000DEBF0FBECDBFDF91CF911F910F91FF90E7
:10245000EF90DF90CF90BF900895809590958C0D70
:102460009D1DC5CFCD2829F0852F84238F3F09F0EE
:1024700041C180E0B82FB170DB2E80FF3CC080915D
:1024800063012091640136E0821315C04D875E8799
:102490008D859E850E943116292F22952F7022301E
:1024A000F0F0243018F59F70F1F0F8019581907FDD
:1024B000D1F4D12C1EC090E0389FF001399FF00D6F
:1024C0001124EB59FE4F6181651306C060816413CE
:1024D00003C06281E6120FC001968770D5CF9F704E
:1024E00011F0882331F3805E883018F3C8010E9410
:1024F0009D10FD2CA1CFEE2009F49ECF80919A0172
:10250000816080939A01F12C97CF351306C0241374
:1025100004C0D801EE2009F49AC04D875E878D85EE
:102520009E850E940011882319F1EE2009F1809107
:102530009A01803270F02091950130919601388790
:102540002F831986DB86CA868C87CE0107960E9468
:102550009D1086E0F801A5E9B1E001900D928A9501
:10256000E1F70E9452110E944411FF24F39464CFBA
:10257000C8010E949D10F9CF911113C07C2DD98AFA
:10258000C88A6E2D89890E94041185E991E00E9414
:102590009D1086E0E5E9F1E0DF011D928A95E9F7FB
:1025A00063C0351312C0241310C0E1100EC0F8012F
:1025B0008583C8010E949D10E5E9F1E086E0DF0116
:1025C0001D928A95E9F7FB2C37CF4D875E878D8565
:1025D0009E850E940011882359F2EE2049F28091D5
:1025E0009A01803208F4B5CF20919501309196017F
:1025F0003A8329831B82DD82CC828E83CE010196B1
:10260000A6CFC816D90698F1F601E81BF90BCF0141
:10261000F12C883C910508F049C0FE2CEE2009F40D
:10262000A7CF351332C0241330C080919A0180FDAA
:1026300023C0982F907F01F1D80115968C931597A0
:10264000903F39F0982F907F905F8F70892B15966F
:102650008C93C8010E949D1086E0F801A5E9B1E0C5
:1026600001900D928A95E1F70E944411E5CE809584
:1026700090958C0D9D1DCCCF86E0F801A5E9B1E0C9
:1026800001900D928A95E1F7D7CE4D875E878D85B3
:102690009E850E94001181115CCF80919A0181601A
:1026A00080939A01C8010E949D10C6CE7C2DD98AC4
:1026B000C88A6E2D89890E9404116BCFEE2009F41F
:1026C00057CF4D875E878D859E850E940011F82E1D
:1026D000882309F44DCF86E0F801A5E9B1E0019027
:1026E0000D928A95E1F785E991E00E94CC0C0E9459
:1026F0005211BACF81E08E25BDCE1F93CF93DF93C9
:10270000CDB7DEB72C970FB6F894DEBF0FBECDBFA6
:102710004F83588769877A878B879C87CE01079676
:102720000E94B611882369F08A859B85892B39F030
:102730004F815885842F85238F3F09F071C016E0A3
:102740005FC086E0FE013796DE01119601900D9282
:102750008A95E1F78A859B85892B89F388859F81F6
:1027600089238F3F61F32091640130E0C901019614
:1027700087709927409163014817190671F40E94E8
:10278000DD10109264011092630186E0E5E9F1E04A
:10279000DF011D928A95E9F7D2CF96E0929FD00192
:1027A000939FB00D1124AB59BE4FFE01319601909D
:1027B0000D929A95E1F7809364010E942311BFCF97
:1027C000819FC00111248B599E4F0E94B61188230E
:1027D000E9F0E09163011E9FF0011124EB59FE4FD7
:1027E0004081518162817381848195810E9413119E
:1027F0008091630190E0019687709927809363012F
:1028000080916301909164018913DACF2C960FB601
:10281000F894DEBF0FBECDBFDF91CF911F91089519
:1028200069857A858B859C850E94131188CFEF92EC
:10283000FF920F931F93CF93DF938C01892B81F02D
:10284000F12CEE24E394E8012196F8018491843779
:1028500070F4843008F05FC08130B1F08230A1F1B3
:10286000DF91CF911F910F91FF90EF9008958537E1
:1028700009F44CC008F43DC09CE7980F903780F7EE
:102880008F770E94DA0D49C00E5F1F4FFE018491C1
:1028900090E2980F983060F48770FE2D01C0FF0F12
:1028A0008A95EAF78F2F0E94A7160E94D01602C0C1
:1028B0000E94D10C8F2D815030F2EFE9FFE031976B
:1028C000F1F700C00000F7CF0E5F1F4FFE018491AB
:1028D00090E2980F983050F48770FE2D01C0FF0FE2
:1028E0008A95EAF78F2F0E94AD16DFCF0E94DA0D8E
:1028F000E1CF0E5F1F4FFE01C491C150D8F28FE9A6
:102900009FE00197F1F700C00000F7CF0E5F1F4F67
:10291000FE01F490CFCF0E94D10C8E01CBCF089551
:102920000C948F140E9490146093BD017093BE01AB
:102930008093BF019093C0010C94C71008950C942C
:1029400092140F931F930091BD011091BE0120912D
:10295000BF013091C001602B712B822B932B1F91F3
:102960000F910C9492140F931F930091BD0110913D
:10297000BE012091BF013091C001602371238223E9
:1029800093231F910F910C9492140F931F93009116
:10299000BD011091BE012091BF013091C00160279F
:1029A0007127822793271F910F910C9492140C94F6
:1029B0009D030E94D7146093B9017093BA0180936C
:1029C000BB019093BC010C94C71060E070E0CB0198
:1029D0000C94D9140F931F9341E050E060E070E035
:1029E0008A019B0104C0000F111F221F331F8A950B
:1029F000D2F7C901B8011F910F910C94D9140F930C
:102A00001F9341E050E060E070E004C0440F551FA8
:102A1000661F771F8A95D2F78091B9019091BA010C
:102A2000A091BB01B091BC018A019B01082B192B1D
:102A30002A2B3B2BC901B8011F910F910C94D9147B
:102A40000F931F9341E050E060E070E004C0440F3A
:102A5000551F661F771F8A95D2F7CB01BA01609583
:102A60007095809590950091B9011091BA012091CF
:102A7000BB013091BC0160237123822393231F91FA
:102A80000F910C94D9140F931F9341E050E060E034
:102A900070E004C0440F551F661F771F8A95D2F758
:102AA0008091B9019091BA01A091BB01B091BC0194
:102AB0008A019B01082719272A273B27C901B8014A
:102AC0001F910F910C94D9140F931F930091B9018A
:102AD0001091BA012091BB013091BC01602B712B88
:102AE000822B932B1F910F910C94D9140F931F934A
:102AF0000091B9011091BA012091BB013091BC0144
:102B000060237123822393231F910F910C94D91476
:102B10000F931F930091B9011091BA012091BB014D
:102B20003091BC0160277127822793271F910F9155
:102B30000C94D91408952CE0929F800D1124982FA5
:102B4000977041E001C0440F9A95EAF78695869503
:102B5000869595E0899FF0011124E556FE4F90E09F
:102B600080E070E05191DF0111979B01082E02C0B7
:102B7000369527950A94E2F721702195252724237D
:102B800025272C9301968530910561F708952CE057
:102B9000929F800D1124982F977086958695869523
:102BA00025E0829FF0011124E556FE4F50E040E001
:102BB00080E0219130E0092E02C0369527950A94D5
:102BC000E2F721703327042E01C0220F0A94EAF79E
:102BD000822B4F5F5F4F4530510559F70895BF92E3
:102BE000CF92DF92EF92FF920F931F93CF93DF93D9
:102BF0008C01C090B901D090BA01E090BB01F09077
:102C0000BC018091BD019091BE01A091BF01B09126
:102C1000C001C82AD92AEA2AFB2ACFE1D0E0BC2E7B
:102C2000D701C6010C2E04C0B695A7959795879538
:102C30000A94D2F780FD0EC0219788F7B12C8B2D16
:102C4000DF91CF911F910F91FF90EF90DF90CF9088
:102C5000BF900895B8018C2F0E94E805019761F399
:102C6000EECFCF93DF93EC010E94EF15BE01DF9111
:102C7000CF910C94E8051F93CF93DF93EB019091D4
:102C80006201992331F0CB01DF91CF911F910C9418
:102C90003116882379F0CB010E94EF15182F682F89
:102CA000CE010E949B15BE01812FDF91CF911F9114
:102CB0000C94E805CB010E94C715182FF4CF682F9C
:102CC00080910401909105010C941418682F809153
:102CD0000401909105010C941618809104019091C3
:102CE00005010C9418188091C101859585958595ED
:102CF00008958091C101877008959091C1019770E6
:102D000081E009F480E008958091CD0108959091CB
:102D1000CD01892B8093CD01089580959091CD01AF
:102D200098239093CD0108951092CD01089590912C
:102D3000CC01892B8093CC01089580959091CC0192
:102D400098239093CC0108951092CC01089590910E
:102D5000CB01892B8093CB01089580959091CB0175
:102D600098239093CB0108951092CB010895809100
:102D7000C201089508950C94BA169091C201981753
:102D800021F08093C2010C94BB1608958091C2017A
:102D9000882329F01092C20180E00C94BB1608959C
:102DA000E0910401F09105018091CD018083E091D3
:102DB0000401F091050180819091CC01892B8083E1
:102DC000E0910401F091050180819091CB01892B64
:102DD00080839091C201992381F0E0910401F091E8
:102DE00005018081892B80838091040190910501E8
:102DF0000E94DB1781110E94C616809104019091F8
:102E000005010C949A0B08950C94031798E0899F80
:102E100090011124622B6093C1010E94FF148091E4
:102E2000C1018595859585950C9404171092C10173
:102E300080E00C9404179091C101809589238093C0
:102E4000C101282F277071F4282F082E000C330B96
:102E50009217130639F08595859585950E94201562
:102E60000C941617089590E080E00E942C1E21E03B
:102E70008C3E9E4F09F020E0822F089582E090E082
:102E80000C941E1E83E090E00C941E1E682F83E0BD
:102E900090E00C94321ECF9384E090E00E941E1EBE
:102EA000C82F81E290E00E941E1E982F8C2FCF9198
:102EB0000895CF93C92F682F84E090E00E94321EBE
:102EC0006C2F81E290E0CF910C94321EAB01BC01DB
:102ED0008FE090E00C94441E83E190E00C94261E59
:102EE000AB01BC0183E190E00C94441E60E070E013
:102EF000CB010E9466170C947B036CEE7EEF90E092
:102F000080E00E94501E60E082E090E00E94321E4D
:102F100060E083E090E00E94321E1092BD011092AA
:102F2000BE011092BF011092C00160E084E090E009
:102F30000E94321E60E081E290E00E94321E60E05A
:102F400085E090E00E94321E60E086E090E00E9402
:102F5000321E6FEF87E090E00E94321E40E050E0AA
:102F6000BA0188E090E00E94441E60E08DE090E0AD
:102F70000E94321E40E050E0BA0188E190E00E94D9
:102F8000441E60E087E190E00E94321E40E050E085
:102F9000BA018CE190E00E94441E60E080E290E083
:102FA0000E94321E0C9476170C947D17682F8EE0C9
:102FB00090E00C94321E9C012E5F3F4FAC01485FA5
:102FC0005F4F80E02417350709F40895F9019191C6
:102FD0009F019923B9F38F5FF5CF9C01FC013296D5
:102FE0009FEF80E04191461751F09F3F19F4411146
:102FF00001C0982F8F5F8630A9F79F3F09F408958D
:10300000290F311D97FD3A95F90162830895FC015E
:10301000329608962191261303C0DF0111971C9266
:10302000E817F907B9F708950C94ED170C940718F1
:10303000029626E0FC0111922A95E9F7089582E0B4
:1030400084BD93E095BD9AEF97BD80936E0008957F
:103050002FB7F8948091720290917302A09174023C
:10306000B09175022FBF0895CF92DF92EF92FF9239
:103070000F931F932FB7F8944091720250917302EF
:1030800060917402709175022FBF6A017B01EE247A
:10309000FF248C0130E020E0C016D106E206F306E2
:1030A00050F0481B590BCA011F910F91FF90EF90F0
:1030B000DF90CF90089541505109F3CF78941F923B
:1030C0001FB61F9211248F939F93AF93BF9380914C
:1030D000720290917302A0917402B09175020196F0
:1030E000A11DB11D8093720290937302A09374028C
:1030F000B0937502BF91AF919F918F911F901FBEAA
:103100001F90189588E198E00FB6F894A8958093E1
:1031100060000FBE90936000A895F894D8E0CEEFC1
:1031200028E3299320E0299314BEFFCF08950E943D
:103130003317811102C00E94D4170E943E1780935A
:10314000CE010E944B1790937702809376020E94E3
:103150004217682F70E090E080E00C949F148091FB
:10316000D20180FF12C06091090185E0689FB00123
:103170001124759567957595679560387105A8F563
:1031800061157105A1F1862F089581FF09C0609135
:10319000090185E0689FB001112475956795EDCF11
:1031A0006091090182FD0AC08091D1018823D1F08C
:1031B0009091080160910901891728F085E0689FC6
:1031C000B0011124DACF869FB001112485E0869FDB
:1031D0009001879F300D1124692F70E0C9010E9472
:1031E000941DCBCF65E070E0CECF8FE7089581E0EE
:1031F00008958091D20180FF0CC06091070170E0BA
:1032000075956795759567956115710549F1862FD7
:10321000089581FF06C06091070170E0759567957C
:10322000F3CF6091070182FD0BC09091D1019923EA
:10323000A1F06091060180910701961738F0682F80
:1032400070E06038710500F38FE70895899FC00131
:10325000112470E00E94941DF4CF61E070E0D7CF9C
:1032600081E00895803F31F40E94AF1881958093EA
:10327000D5010895813F19F40E94AF18F8CF823F1D
:1032800031F40E94AF1881958093D4010895833F53
:1032900019F40E94AF18F8CF893F29F40E94F91859
:1032A0008093D60108958A3F21F40E94F9188195F0
:1032B000F7CF8B3F31F40E94F91881958093D701A5
:1032C00008958C3F19F40E94F918F8CF843F31F427
:1032D0008091D30181608093D3010895853F21F4CB
:1032E0008091D3018260F7CF863F21F48091D30192
:1032F0008460F1CF873F21F48091D3018860EBCFC8
:10330000883F21F48091D3018061E5CF8D3F31F476
:103310008091D20181608093D20108958E3F21F483
:103320008091D2018260F7CF8F3FB9F78091D201AF
:103330008460F1CF9091D401803F41F48091D50118
:1033400087FD1092D501992371F00895813F29F4EA
:103350008091D5011816ACF3F6CF823F81F497FF28
:10336000F2CF1092D4018091D5019091D601892B92
:103370009091D701892B49F71092D1010895833F8D
:1033800019F4191674F3DFCF893F39F48091D6010F
:103390001816CCF61092D601D6CF8A3F29F4809128
:1033A000D60187FFD0CFF6CF8B3F39F48091D7017C
:1033B00087FFC9CF1092D701C6CF8C3F29F48091E7
:1033C000D7011816BCF3BFCF843F31F48091D301ED
:1033D0008E7F8093D301B7CF853F21F48091D301B5
:1033E0008D7FF7CF863F21F48091D3018B7FF1CF82
:1033F000873F21F48091D301877FEBCF883F21F471
:103400008091D3018F7EE5CF8D3F31F48091D20141
:103410008E7F8093D20197CF8E3F21F48091D2018D
:103420008D7FF7CF8F3F09F08ECF8091D2018B7FB8
:10343000F0CF83ED91E00E94A50B0E942818909395
:10344000D0018093CF0108951F93CF93DF93809194
:10345000CF019091D0010E943418AC019091D1011C
:1034600020910A0130E0911106C020910B018AE001
:10347000289F900111244217530778F02091D4011E
:10348000C091D501D091D6011091D701211109C069
:103490008C2F8D2B812B09F06AC0DF91CF911F916A
:1034A00008959F3F19F09F5F9093D101121624F465
:1034B0000E94AF188093D4018091D40187FF05C08A
:1034C0000E94AF1881958093D4011C1624F40E94A9
:1034D000AF188093D5018091D50187FF05C00E9468
:1034E000AF1881958093D5013091D4013323A1F099
:1034F0002091D501222381F045EB3403C001112432
:10350000992369F19093D40145EB24039001112490
:10351000332349F13093D5011D1624F40E94F91884
:103520008093D6018091D60187FF05C00E94F918CB
:1035300081958093D601111624F40E94F918809386
:10354000D7018091D70187FF05C00E94F9188195A6
:103550008093D701DF91CF911F910C94191A81E0CC
:103560008093D401D1CF81E08093D501D5CF9F3F07
:1035700009F099CFAACF85E0E3EDF1E0DF011D92DC
:103580008A95E9F71092D1011092D201089580E84E
:1035900080936100109261000E94E20B0E94E80B90
:1035A0000E94AC1B0E94890B0E94811D539A80E0EF
:1035B000815081F4539878940E94621C8091970204
:1035C000882329F08091830284FD0E94F00B0E94E1
:1035D000601BF2CFA895EFE9FFE03197F1F700C04B
:1035E0000000E6CF80916A020895CF93DF9300D068
:1035F0000F92CDB7DEB72091DA013091DB012817A9
:10360000390789F09093DB018093DA0124E0298364
:103610009B838A838091AE0284FF05C063E0CE0164
:1036200001960E945E1C0F900F900F90DF91CF913A
:103630000895CF93DF9300D00F92CDB7DEB72091DE
:10364000D8013091D9012817390789F09093D90111
:103650008093D80123E029839B838A838091AE02E3
:1036600084FF05C063E0CE0101960E945E1C0F90AE
:103670000F900F90DF91CF910895CF93DF9300D0FB
:1036800000D000D0CDB7DEB7FC0182E0898395E0A1
:10369000DE01129601900D929A95E1F78091AE02AB
:1036A00084FF05C066E0CE0101960E945E1C26964E
:1036B0000FB6F894DEBF0FBECDBFDF91CF91089556
:1036C000CF93DF93CAE0D0E08091830284FF1AC0D9
:1036D0008091E7019091E801981789F028E0829F96
:1036E000C001112468E087519E4F0E945A1C8091AE
:1036F000E70190E001968F7099278093E701DF91B1
:10370000CF9108950E94621C8FE99FE00197F1F725
:1037100000C000002197C1F6F2CFFC01A091E801A2
:10372000B0E09D012F5F3F4F2F7033278091E7015D
:10373000821771F083E0AA0FBB1F8A95E1F7A751AA
:10374000BE4F98E001900D929A95E1F72093E80121
:103750000E94621C0C94601B8CE091E00895FC01B7
:10376000808180768032D1F48181813041F48FED87
:1037700091E0909393028093920288E008958230C2
:1037800041F489E692E0909393028093920281E063
:1037900008958A3029F483818093690280E0089536
:1037A0008930E1F7828193818115924069F48481A7
:1037B0009581892B49F481E08093DE018681978190
:1037C0009093DD018093DC018FEF0895FC018091DF
:1037D000DC019091DD01892B61F08091DE01813067
:1037E00041F4908190936A021092DD011092DC0105
:1037F00008958FEF0895FC018381813261F0823258
:10380000E1F0823069F488E492E09093930280932F
:1038100092028BE308958281882321F0813051F058
:1038200080E008958AE592E090939302809392025B
:1038300089E0089583E792E0F7CF8481958100972E
:1038400051F0019769F783E892E090939302809397
:10385000920284E8089587E093E090939302809326
:10386000920280E408951F93CF93DF93E82F792F7E
:10387000162FEA01888184FF1AC0298188E8282749
:103880002983CE010296DC012E2F372F412F4E0FB8
:10389000F90121912D939F014E13FACF612F0E94C0
:1038A00030021C5F1883DF91CF911F9108958AE544
:1038B0008883E7CF43E852E00C94331C4EEA52E091
:1038C0000C94331CCF93DF9360919402635067FD97
:1038D0002BC080919102CCE0D0E0C81BD109C85622
:1038E000DD4F809190028D3209F0EBC06830D1F449
:1038F00083EC809378028AE58093170110926B0223
:103900008881807609F45FC0CE010E94AF1B8F3F93
:1039100009F068C0988197FD8E8190E890936B02C2
:1039200080931601109294028091170184FF3EC08B
:10393000809116018F3FD1F1C82F893008F0C8E07F
:10394000982F9C1B909316019091780228E892275B
:10395000909378028823E9F08091920290919302EB
:1039600020916B023C2F380F26FFBEC0FC01A9E757
:10397000B2E024912D9331963E13FBCF2FEF2C0F05
:1039800030E02F5F3F4F820F931F909393028093FD
:1039900092026C2F89E792E00E943002CC5FCC301B
:1039A00019F08FEF80931601C093170184E199B14C
:1039B0009C7031F48150D9F71092950210928F02C9
:1039C000DF91CF9108952A811092810299819111FE
:1039D00012C01092820221E832E082E0309393021A
:1039E000209392029F8191119BCF9E81981708F09E
:1039F00097CF892F95CF953029F42093950221E810
:103A000032E0ECCF963009F043C09B81913059F4FD
:103A100087E493E0909393028093920282E190E492
:103A200090936B0274CF923021F4CE010E94FB1B65
:103A3000F6CF933041F5211108C08FE993E09093C0
:103A400093028093920284E0EACF213041F489E826
:103A500093E0909393028093920286E1E0CF22302C
:103A600041F48DE793E090939302809392028CE06F
:103A7000D6CF2330A1F689E593E09093930280930B
:103A8000920284E2CCCF913281F2923241F6CDCFD4
:103A9000983081F0993019F420939702B0CF9A3082
:103AA00069F09B3009F0ABCF9BE490938402909334
:103AB000AF02A5CF27E932E081E090CF21E832E0E4
:103AC000FBCF80916B0287FF2DCFCE010E94E61BBA
:103AD0008F3F21F48EE18093170124CF882309F4CE
:103AE00021CF109216011ECFA9E7B2E0282F492F4F
:103AF000E22FF42F21912D932E2F4F2F3E13F8CF2D
:103B00003DCFE9E6F0E0808182608083E89AA3E817
:103B1000B2E08BE411968C931197EEEAF2E0818388
:103B20008AE58C938083089597FB072E16F4009402
:103B300007D077FD09D00E94AE1D07FC05D03EF4EA
:103B4000909581959F4F0895709561957F4F089549
:103B5000EE0FFF1F0590F491E02D0994AA1BBB1BEB
:103B600051E107C0AA1FBB1FA617B70710F0A61B7D
:103B7000B70B881F991F5A95A9F780959095BC019E
:103B8000CD0108958F929F92AF92BF92CF92DF9214
:103B9000EF92FF92CF93DF93EC01688179818A8164
:103BA0009B81611571058105910521F464E279ED30
:103BB0008BE597E02DE133EF41E050E00E94661E77
:103BC00049015A019B01AC01A7EAB1E40E94851E9C
:103BD0006B017C01ACEEB4EFA50194010E94931E31
:103BE000DC01CB018C0D9D1DAE1DBF1DB7FF03C0B9
:103BF0000197A109B04888839983AA83BB839F77E3
:103C0000DF91CF91FF90EF90DF90CF90BF90AF907A
:103C10009F908F9008950E94C21D089580E091E0CA
:103C20000E94C21D0895B0E0A0E08093000190932F
:103C30000101A0930201B09303010895F999FECF09
:103C400092BD81BDF89A992780B50895A6E1B0E0AC
:103C500044E050E00C94581EA8E1B0E042E050E08F
:103C60000C94581E262FF999FECF92BD81BDF89A6B
:103C7000019700B4021639F01FBA20BD0FB6F894B0
:103C8000FA9AF99A0FBE08950396272F0E94331EC1
:103C90000E94321E252F0E94331E242F0C94331EA7
:103CA0000196272F0E94331E0C94321EDC01CB019B
:103CB000FC01F999FECF06C0F2BDE1BDF89A31963C
:103CC00000B40D9241505040B8F70895052E97FB6F
:103CD0001EF400940E947D1E57FD07D00E94981E7E
:103CE00007FC03D04EF40C947D1E50954095309502
:103CF00021953F4F4F4F5F4F089590958095709558
:103D000061957F4F8F4F9F4F08950E94BA1EA59FC8
:103D1000900DB49F900DA49F800D911D11240895C6
:103D2000B7FF0C94851E0E94851E821B930B08957D
:103D3000A1E21A2EAA1BBB1BFD010DC0AA1FBB1FAF
:103D4000EE1FFF1FA217B307E407F50720F0A21B21
:103D5000B30BE40BF50B661F771F881F991F1A948E
:103D600069F760957095809590959B01AC01BD01B8
:103D7000CF010895A29FB001B39FC001A39F700D12
:103D8000811D1124911DB29F700D811D1124911D63
:103D90000895F894FFCF52045F04A50465048004DD
:103DA0009104950499049B049D049F04A104A30419
:103DB000840E840EDC0EDC0E2E0F4A0FB10EB10EF7
:103DC0008C0F1810271027108310B10EB10E8C1015
:103DD000EC10EC10F510F510F710F510F510F510CB
:0C3DE000EC10EC10FC10F510F510FC10BD
:103DEC0001000000C3012808140A321EF21A8D1BB0
:103DFC003D1B191BF51AFF5AE000E400E200E60037
:103E0C00E100E500E300E70002510351309796957D
:0C3E1C0032316061626391903435339460
:00000001FF
